{
  "contractName": "LotteryModified",
  "abi": [
    {
      "inputs": [],
      "stateMutability": "nonpayable",
      "type": "constructor"
    },
    {
      "inputs": [],
      "name": "manager",
      "outputs": [
        {
          "internalType": "address",
          "name": "",
          "type": "address"
        }
      ],
      "stateMutability": "view",
      "type": "function",
      "constant": true
    },
    {
      "inputs": [
        {
          "internalType": "uint256",
          "name": "",
          "type": "uint256"
        }
      ],
      "name": "players",
      "outputs": [
        {
          "internalType": "address payable",
          "name": "",
          "type": "address"
        }
      ],
      "stateMutability": "view",
      "type": "function",
      "constant": true
    },
    {
      "inputs": [
        {
          "internalType": "address",
          "name": "",
          "type": "address"
        }
      ],
      "name": "playersAndInputs",
      "outputs": [
        {
          "internalType": "uint256",
          "name": "",
          "type": "uint256"
        }
      ],
      "stateMutability": "view",
      "type": "function",
      "constant": true
    },
    {
      "inputs": [],
      "name": "enterLottery",
      "outputs": [],
      "stateMutability": "payable",
      "type": "function",
      "payable": true
    },
    {
      "inputs": [],
      "name": "pickWinner",
      "outputs": [],
      "stateMutability": "nonpayable",
      "type": "function"
    },
    {
      "inputs": [],
      "name": "getPlayers",
      "outputs": [
        {
          "internalType": "address payable[]",
          "name": "",
          "type": "address[]"
        }
      ],
      "stateMutability": "view",
      "type": "function",
      "constant": true
    }
  ],
  "bytecode": "0x608060405234801561001057600080fd5b50336000806101000a81548173ffffffffffffffffffffffffffffffffffffffff021916908373ffffffffffffffffffffffffffffffffffffffff1602179055506106fc806100606000396000f3fe6080604052600436106100555760003560e01c8063481c6a751461005a5780634ad739851461009b5780635d495aea146101005780638b5b9ccc14610117578063c1af578514610183578063f71d96cb1461018d575b600080fd5b34801561006657600080fd5b5061006f6101f2565b604051808273ffffffffffffffffffffffffffffffffffffffff16815260200191505060405180910390f35b3480156100a757600080fd5b506100ea600480360360208110156100be57600080fd5b81019080803573ffffffffffffffffffffffffffffffffffffffff169060200190929190505050610216565b6040518082815260200191505060405180910390f35b34801561010c57600080fd5b5061011561022e565b005b34801561012357600080fd5b5061012c610381565b6040518080602001828103825283818151815260200191508051906020019060200280838360005b8381101561016f578082015181840152602081019050610154565b505050509050019250505060405180910390f35b61018b61040f565b005b34801561019957600080fd5b506101c6600480360360208110156101b057600080fd5b8101908080359060200190929190505050610518565b604051808273ffffffffffffffffffffffffffffffffffffffff16815260200191505060405180910390f35b60008054906101000a900473ffffffffffffffffffffffffffffffffffffffff1681565b60016020528060005260406000206000915090505481565b60006002808054905061023f610557565b8161024657fe5b068154811061025157fe5b9060005260206000200160009054906101000a900473ffffffffffffffffffffffffffffffffffffffff1690506000600160008373ffffffffffffffffffffffffffffffffffffffff1673ffffffffffffffffffffffffffffffffffffffff1681526020019081526020016000205490506000600a60098360020202816102d457fe5b0490508273ffffffffffffffffffffffffffffffffffffffff166108fc829081150290604051600060405180830381858888f1935050505015801561031d573d6000803e3d6000fd5b50600067ffffffffffffffff8111801561033657600080fd5b506040519080825280602002602001820160405280156103655781602001602082028036833780820191505090505b506002908051906020019061037b9291906105f9565b50505050565b6060600280548060200260200160405190810160405280929190818152602001828054801561040557602002820191906000526020600020905b8160009054906101000a900473ffffffffffffffffffffffffffffffffffffffff1673ffffffffffffffffffffffffffffffffffffffff16815260200190600101908083116103bb575b5050505050905090565b66470de4df82000034101561046f576040517f08c379a00000000000000000000000000000000000000000000000000000000081526004018080602001828103825260268152602001806106a16026913960400191505060405180910390fd5b6002339080600181540180825580915050600190039060005260206000200160009091909190916101000a81548173ffffffffffffffffffffffffffffffffffffffff021916908373ffffffffffffffffffffffffffffffffffffffff16021790555034600160003373ffffffffffffffffffffffffffffffffffffffff1673ffffffffffffffffffffffffffffffffffffffff16815260200190815260200160002081905550565b6002818154811061052857600080fd5b906000526020600020016000915054906101000a900473ffffffffffffffffffffffffffffffffffffffff1681565b6000444260026040516020018084815260200183815260200182805480156105d457602002820191906000526020600020905b8160009054906101000a900473ffffffffffffffffffffffffffffffffffffffff1673ffffffffffffffffffffffffffffffffffffffff168152602001906001019080831161058a575b505093505050506040516020818303038152906040528051906020012060001c905090565b828054828255906000526020600020908101928215610672579160200282015b828111156106715782518260006101000a81548173ffffffffffffffffffffffffffffffffffffffff021916908373ffffffffffffffffffffffffffffffffffffffff16021790555091602001919060010190610619565b5b50905061067f9190610683565b5090565b5b8082111561069c576000816000905550600101610684565b509056fe596f757220696e7075742073686f756c64206265206174206c6561737420302e303220455448a2646970667358221220294fb7b5cec523d2d319fa76cc8ecfaaead7dd2ec921e027eb537848cb86b6a564736f6c63430007040033",
  "immutableReferences": {},
  "source": "// SPDX-License-Identifier: MIT\npragma solidity 0.7.4;\n\ncontract LotteryModified {\n  \n  address public manager;\n  mapping(address => uint) public playersAndInputs;\n  address payable[] public players;\n  \n  constructor() {\n    manager = msg.sender;\n  }\n\n  function enterLottery() public payable {\n    require(msg.value >= 0.02 ether, \"Your input should be at least 0.02 ETH\");\n    players.push(msg.sender);\n    playersAndInputs[msg.sender] = msg.value;\n  }\n\n  function notReallyRandom() private view returns(uint) {\n    return uint(keccak256(abi.encodePacked(block.difficulty, block.timestamp, players)));\n  }\n\n  function pickWinner() public {\n    address payable winnerAddress = players[notReallyRandom()%players.length];\n    uint winnerInput = playersAndInputs[winnerAddress];\n    uint prize = uint((2 * winnerInput) * 9 / 10); \n    winnerAddress.transfer(prize);\n    players = new address payable[](0);\n  }\n\n  function getPlayers() public view returns (address payable [] memory) {\n    return players;\n  }\n}\n",
  "sourcePath": "C:/Users/lduryan/Nooor-Ethereum-Dev-Course/Contracts/LotteryModified/contracts/LotteryModified.sol",
  "compiler": {
    "name": "solc",
    "version": "0.7.4+commit.3f05b770.Emscripten.clang"
  },
  "schemaVersion": "3.3.4",
  "updatedAt": "2021-03-15T17:43:33.092Z",
  "networkType": "ethereum",
  "devdoc": {
    "kind": "dev",
    "methods": {},
    "version": 1
  },
  "userdoc": {
    "kind": "user",
    "methods": {},
    "version": 1
  }
}