{
  "contractName": "Lottery",
  "abi": [
    {
      "inputs": [],
      "stateMutability": "nonpayable",
      "type": "constructor"
    },
    {
      "inputs": [],
      "name": "manager",
      "outputs": [
        {
          "internalType": "address",
          "name": "",
          "type": "address"
        }
      ],
      "stateMutability": "view",
      "type": "function",
      "constant": true
    },
    {
      "inputs": [
        {
          "internalType": "uint256",
          "name": "",
          "type": "uint256"
        }
      ],
      "name": "players",
      "outputs": [
        {
          "internalType": "address payable",
          "name": "",
          "type": "address"
        }
      ],
      "stateMutability": "view",
      "type": "function",
      "constant": true
    },
    {
      "inputs": [],
      "name": "enter",
      "outputs": [],
      "stateMutability": "payable",
      "type": "function",
      "payable": true
    },
    {
      "inputs": [],
      "name": "getPrizePool",
      "outputs": [
        {
          "internalType": "uint256",
          "name": "",
          "type": "uint256"
        }
      ],
      "stateMutability": "view",
      "type": "function",
      "constant": true
    },
    {
      "inputs": [],
      "name": "pickWinner",
      "outputs": [
        {
          "internalType": "address",
          "name": "",
          "type": "address"
        }
      ],
      "stateMutability": "nonpayable",
      "type": "function"
    },
    {
      "inputs": [],
      "name": "getPlayers",
      "outputs": [
        {
          "internalType": "address payable[]",
          "name": "",
          "type": "address[]"
        }
      ],
      "stateMutability": "view",
      "type": "function",
      "constant": true
    }
  ],
  "bytecode": "0x608060405234801561001057600080fd5b50336000806101000a81548173ffffffffffffffffffffffffffffffffffffffff021916908373ffffffffffffffffffffffffffffffffffffffff160217905550610b2c806100606000396000f3fe6080604052600436106100555760003560e01c8063481c6a751461005a5780635d495aea1461009b578063884bf67c146100dc5780638b5b9ccc14610107578063e97dcb6214610173578063f71d96cb1461017d575b600080fd5b34801561006657600080fd5b5061006f6101e2565b604051808273ffffffffffffffffffffffffffffffffffffffff16815260200191505060405180910390f35b3480156100a757600080fd5b506100b0610206565b604051808273ffffffffffffffffffffffffffffffffffffffff16815260200191505060405180910390f35b3480156100e857600080fd5b506100f161041c565b6040518082815260200191505060405180910390f35b34801561011357600080fd5b5061011c610552565b6040518080602001828103825283818151815260200191508051906020019060200280838360005b8381101561015f578082015181840152602081019050610144565b505050509050019250505060405180910390f35b61017b6106f1565b005b34801561018957600080fd5b506101b6600480360360208110156101a057600080fd5b81019080803590602001909291905050506108e4565b604051808273ffffffffffffffffffffffffffffffffffffffff16815260200191505060405180910390f35b60008054906101000a900473ffffffffffffffffffffffffffffffffffffffff1681565b6000604051806060016040528060248152602001610aa86024913960008054906101000a900473ffffffffffffffffffffffffffffffffffffffff1673ffffffffffffffffffffffffffffffffffffffff163373ffffffffffffffffffffffffffffffffffffffff16148190610317576040517f08c379a00000000000000000000000000000000000000000000000000000000081526004018080602001828103825283818151815260200191508051906020019080838360005b838110156102dc5780820151818401526020810190506102c1565b50505050905090810190601f1680156103095780820380516001836020036101000a031916815260200191505b509250505060405180910390fd5b50600060018080549050610329610923565b8161033057fe5b068154811061033b57fe5b9060005260206000200160009054906101000a900473ffffffffffffffffffffffffffffffffffffffff1690508073ffffffffffffffffffffffffffffffffffffffff166108fc61038a61041c565b9081150290604051600060405180830381858888f193505050501580156103b5573d6000803e3d6000fd5b50600067ffffffffffffffff811180156103ce57600080fd5b506040519080825280602002602001820160405280156103fd5781602001602082028036833780820191505090505b50600190805190602001906104139291906109c5565b50809250505090565b60006040518060400160405280601a81526020017f5265737472696374656420746f206d616e61676572206f6e6c7900000000000081525060008054906101000a900473ffffffffffffffffffffffffffffffffffffffff1673ffffffffffffffffffffffffffffffffffffffff163373ffffffffffffffffffffffffffffffffffffffff1614819061054a576040517f08c379a00000000000000000000000000000000000000000000000000000000081526004018080602001828103825283818151815260200191508051906020019080838360005b8381101561050f5780820151818401526020810190506104f4565b50505050905090810190601f16801561053c5780820380516001836020036101000a031916815260200191505b509250505060405180910390fd5b504791505090565b60606040518060600160405280602b8152602001610acc602b913960008054906101000a900473ffffffffffffffffffffffffffffffffffffffff1673ffffffffffffffffffffffffffffffffffffffff163373ffffffffffffffffffffffffffffffffffffffff16148190610663576040517f08c379a00000000000000000000000000000000000000000000000000000000081526004018080602001828103825283818151815260200191508051906020019080838360005b8381101561062857808201518184015260208101905061060d565b50505050905090810190601f1680156106555780820380516001836020036101000a031916815260200191505b509250505060405180910390fd5b5060018054806020026020016040519081016040528092919081815260200182805480156106e657602002820191906000526020600020905b8160009054906101000a900473ffffffffffffffffffffffffffffffffffffffff1673ffffffffffffffffffffffffffffffffffffffff168152602001906001019080831161069c575b505050505091505090565b6040518060400160405280601f81526020017f4d616e616765722063616e277420656e74657220746865206c6f74746572790081525060008054906101000a900473ffffffffffffffffffffffffffffffffffffffff1673ffffffffffffffffffffffffffffffffffffffff163373ffffffffffffffffffffffffffffffffffffffff161415819061081e576040517f08c379a00000000000000000000000000000000000000000000000000000000081526004018080602001828103825283818151815260200191508051906020019080838360005b838110156107e35780820151818401526020810190506107c8565b50505050905090810190601f1680156108105780820380516001836020036101000a031916815260200191505b509250505060405180910390fd5b50662386f26fc10000341161087e576040517f08c379a000000000000000000000000000000000000000000000000000000000815260040180806020018281038252603b815260200180610a6d603b913960400191505060405180910390fd5b6001339080600181540180825580915050600190039060005260206000200160009091909190916101000a81548173ffffffffffffffffffffffffffffffffffffffff021916908373ffffffffffffffffffffffffffffffffffffffff16021790555050565b600181815481106108f457600080fd5b906000526020600020016000915054906101000a900473ffffffffffffffffffffffffffffffffffffffff1681565b6000444260016040516020018084815260200183815260200182805480156109a057602002820191906000526020600020905b8160009054906101000a900473ffffffffffffffffffffffffffffffffffffffff1673ffffffffffffffffffffffffffffffffffffffff1681526020019060010190808311610956575b505093505050506040516020818303038152906040528051906020012060001c905090565b828054828255906000526020600020908101928215610a3e579160200282015b82811115610a3d5782518260006101000a81548173ffffffffffffffffffffffffffffffffffffffff021916908373ffffffffffffffffffffffffffffffffffffffff160217905550916020019190600101906109e5565b5b509050610a4b9190610a4f565b5090565b5b80821115610a68576000816000905550600101610a50565b509056fe457468657220766c6175652073686f756c6420626520626967676572207468616e20302e303120746f20656e74657220746865206c6f747465727957696e6e65722063616e206265207069636b6564206f6e6c79206279206d616e616765724f6e6c79206d616e616765722063616e2067657420746865206c697374206f6620706c6179657273212121a2646970667358221220744a376cc97436696ea429cf76e51c549089f7cf1481add2eaf1827f1b3fb3df64736f6c63430007040033",
  "immutableReferences": {},
  "source": "pragma solidity 0.7.4;\r\n\r\ncontract Lottery {\r\n    address public manager;\r\n    address payable[] public players;\r\n    \r\n    constructor() {\r\n        manager = msg.sender;\r\n    }\r\n    \r\n    function enter() public onlyPlayer(\"Manager can't enter the lottery\") payable {\r\n        require(msg.value > 0.01 ether, \"Ether vlaue should be bigger than 0.01 to enter the lottery\");\r\n        players.push(msg.sender);\r\n    }\r\n    \r\n    function notReallyRandom() private view returns (uint) {\r\n        return uint(keccak256(abi.encodePacked(block.difficulty, block.timestamp, players)));\r\n    }\r\n    \r\n    function getPrizePool() public view onlyManager(\"Restricted to manager only\") returns(uint) {\r\n        return address(this).balance;\r\n    }\r\n    \r\n    function pickWinner() public onlyManager(\"Winner can be picked only by manager\") returns (address) {\r\n        address payable winner = players[notReallyRandom()%players.length];\r\n        winner.transfer(getPrizePool());\r\n        players = new address payable[](0);\r\n        return winner;\r\n    }\r\n\r\n    function getPlayers() public view onlyManager(\"Only manager can get the list of players!!!\") returns (address payable [] memory) {\r\n      return players;\r\n    }\r\n    \r\n    modifier onlyManager(string memory message) {\r\n      require(msg.sender == manager, message);\r\n      _;\r\n    }\r\n    \r\n    modifier onlyPlayer(string memory message) {\r\n      require(msg.sender != manager, message);\r\n      _;\r\n    }\r\n}\r\n",
  "sourcePath": "C:/Users/lduryan/Nooor-Ethereum-Dev-Course/Contracts/Lottery/contracts/Lottery.sol",
  "compiler": {
    "name": "solc",
    "version": "0.7.4+commit.3f05b770.Emscripten.clang"
  },
  "schemaVersion": "3.3.4",
  "updatedAt": "2021-03-15T14:11:06.238Z",
  "networkType": "ethereum",
  "devdoc": {
    "kind": "dev",
    "methods": {},
    "version": 1
  },
  "userdoc": {
    "kind": "user",
    "methods": {},
    "version": 1
  }
}